S01200004C6162375F70617274332E7372656383
S113000045C0000060C000005EC000005CC000008D
S11300105AC0000058C0000056C0000054C0000080
S113002052C0000050C000004EC000004CC0000090
S11300304AC000008BC0000046C0000044C000005D
S113004042C0000040C000003EC000003CC00000B0
S11300503AC0000038C0000036C0000034C00000C0
S113006032C0000030C000002EC000002CC00000D0
S11300702AC0000028C0000026C0000024C00000E0
S113008022C0000020C000001EC0000011241FBEBA
S1130090CFEFD0E4DEBFCDBF11E0A0E0B1E0E2ECF1
S11300A0F6E000E00BBF02C007900D92A031B1074B
S11300B0D9F721E0A0E1B1E001C01D92A232B2075C
S11300C0E1F75ED2FCC29CCFCF93DF93CDB7DEB70E
S11300D081E890E02BE0FC01208388E890E02DE7A4
S11300E030E0FC01318320838FE690E022E0FC01C4
S11300F0208384E890E0FC01118210828091000149
S113010090910101A0910201B0910301809311012A
S113011090931201A0931301B09314018FE590E022
S11301202FE530E0F90120812068FC0120830000E4
S1130130DF91CF910895CF93DF93CDB7DEB781E000
S1130140809310010000DF91CF9108951F920F92C8
S113015000905F000F92112400905B000F922F9388
S11301603F934F935F936F937F938F939F93AF933B
S1130170BF93EF93FF93CF93DF93CDB7DEB7809117
S1130180110190911201A0911301B09114010197F2
S1130190A109B1098093110190931201A093130155
S11301A0B09314018091110190911201A091130157
S11301B0B0911401892B8A2B8B2B89F4BCDF80919D
S11301C0000190910101A0910201B091030180937B
S11301D0110190931201A0931301B0931401000034
S11301E0DF91CF91FF91EF91BF91AF919F918F914B
S11301F07F916F915F914F913F912F910F9000925A
S11302005B000F9000925F000F901F901895CF93A2
S1130210DF9300D000D0CDB7DEB769837A838B83B8
S11302209C8389819A81AB81BC81809300019093E6
S11302300101A0930201B093030180910001909108
S11302400101A0910201B0910301809311019093E7
S11302501201A0931301B093140100000F900F90AA
S11302600F900F90DF91CF910895CF93DF93CDB787
S1130270DEB780911701909118018130910569F0E2
S11302808130910518F0029779F014C081E090E074
S113029090931801809317010EC082E090E0909330
S11302A018018093170107C081E090E09093180132
S11302B080931701000080911701909118018130FB
S11302C0910531F08130910550F0029721F008C07A
S11302D01092160105C081E08093160101C0000050
S11302E080911601809321010000DF91CF91089540
S11302F0CF93DF93CDB7DEB780911E0190911F019C
S11303008130910581F08130910530F08230910582
S113031089F00397B1F01CC081E090E090931F0135
S113032080931E0115C082E090E090931F0180939A
S11303301E010EC083E090E090931F0180931E0184
S113034007C081E090E090931F0180931E0100009C
S113035080911E0190911F018130910549F08130F7
S1130360910590F08230910539F0039749F00DC062
S113037082E08093160109C084E08093160105C0D1
S113038088E08093160101C00000809116018093DB
S11303901B010000DF91CF910895CF93DF93CDB778
S11303A0DEB780E290E0FC018081809584708093C8
S11303B0150180911C0190911D018130910581F0FE
S11303C08130910530F082309105E1F0039761F1BD
S11303D03DC081E090E090931D0180931C0136C0E4
S11303E080911501843039F482E090E090931D01EE
S11303F080931C012BC083E090E090931D018093B7
S11304001C0124C080911501843039F482E090E00D
S113041090931D0180931C0119C083E090E0909398
S11304201D0180931C0112C080911501843039F4A0
S113043082E090E090931D0180931C0106C083E04C
S113044090E090931D0180931C01000080911C0199
S113045090911D018130910581F08130910578F0F2
S11304608230910519F0039729F00AC080E1809346
S1130470160106C01092160103C0000001C000005E
S113048080911601809320010000DF91CF9108959F
S1130490CF93DF93CDB7DEB78091190190911A0104
S11304A0009719F0019741F00EC081E090E090931D
S11304B01A018093190107C081E090E090931A011A
S11304C08093190100008091190190911A010097FD
S11304D009F451C0019709F04FC08091080190912F
S11304E00901A0910A01B0910B012CE231E040E036
S11304F050E0BC01CD01C1D0DC01CB01892B8A2B9A
S11305008B2B09F4F5DE8091040190910501A091F3
S11305100601B091070128EE33E040E050E0BC0151
S1130520CD01ABD0DC01CB01892B8A2B8B2B09F4B9
S11305309CDE80910C0190910D01A0910E01B0916F
S11305400F0181709927AA27BB27892B8A2B8B2B14
S113055009F423DF90911B0180912101982B809154
S11305602001892B8093160185E290E020911601E9
S1130570FC01208301C000000000DF91CF910895A9
S1130580CF93DF9300D000D0CDB7DEB781E290E007
S1130590FC01108282E290E02FEFFC01208384E2D0
S11305A090E02FEFFC01208385E290E0FC011082B3
S11305B084E690E0A0E0B0E089839A83AB83BC83B7
S11305C089819A81AB81BC81BC01CD0120DE7CDDB7
S11305D010921A01109219015BDF00008091100142
S11305E08823E1F310921001209104013091050158
S11305F0409106015091070189819A81AB81BC81A8
S1130600820F931FA41FB51F8093040190930501CB
S1130610A0930601B09307012091080130910901CC
S113062040910A0150910B0189819A81AB81BC816F
S1130630820F931FA41FB51F809308019093090193
S1130640A0930A01B0930B0120910C0130910D018C
S113065040910E0150910F0189819A81AB81BC8137
S1130660820F931FA41FB51F80930C0190930D015B
S1130670A0930E01B0930F01AFCFA1E21A2EAA1BD3
S1130680BB1BFD010DC0AA1FBB1FEE1FFF1FA2173E
S1130690B307E407F50720F0A21BB30BE40BF50B3B
S11306A0661F771F881F991F1A9469F760957095C4
S11306B0809590959B01AC01BD01CF010895F894FC
S10506C0FFCF66
S11306C201000000E80300002C0100000200000009
S9030000FC
