:1000000045C0000060C000005EC000005CC0000091
:100010005AC0000058C0000056C0000054C0000084
:1000200052C0000050C000004EC000004CC0000094
:100030004AC000008BC0000046C0000044C0000061
:1000400042C0000040C000003EC000003CC00000B4
:100050003AC0000038C0000036C0000034C00000C4
:1000600032C0000030C000002EC000002CC00000D4
:100070002AC0000028C0000026C0000024C00000E4
:1000800022C0000020C000001EC0000011241FBEBE
:10009000CFEFD0E4DEBFCDBF11E0A0E0B1E0EEE7EE
:1000A000F4E000E00BBF02C007900D92A630B1074C
:1000B000D9F721E0A6E0B1E001C01D92AF30B20750
:1000C000E1F79DD1DAC19CCFCF93DF93CDB7DEB7F7
:1000D00081E890E02BE0FC01208388E890E02DE7A8
:1000E00030E0FC01318320838FE690E022E0FC01C8
:1000F000208384E890E0FC0111821082809100014D
:1001000090910101A0910201B09103018093070138
:1001100090930801A0930901B0930A018FE590E044
:100120002FE530E0F90120812068FC0120830000E8
:10013000DF91CF910895CF93DF93CDB7DEB781E004
:10014000809306010000DF91CF9108951F920F92D6
:1001500000905F000F92112400905B000F922F938C
:100160003F934F935F936F937F938F939F93AF933F
:10017000BF93EF93FF93CF93DF93CDB7DEB780911B
:10018000070190910801A0910901B0910A0101971E
:10019000A109B1098093070190930801A093090177
:1001A000B0930A018091070190910801A091090183
:1001B000B0910A01892B8A2B8B2B89F4BCDF8091AB
:1001C000000190910101A0910201B091030180937F
:1001D000070190930801A0930901B0930A01000060
:1001E000DF91CF91FF91EF91BF91AF919F918F914F
:1001F0007F916F915F914F913F912F910F9000925E
:100200005B000F9000925F000F901F901895CF93A6
:10021000DF9300D000D0CDB7DEB769837A838B83BC
:100220009C8389819A81AB81BC81809300019093EA
:100230000101A0930201B09303018091000190910C
:100240000101A0910201B0910301809307019093F5
:100250000801A0930901B0930A0100000F900F90CC
:100260000F900F90DF91CF910895CF93DF9300D03F
:1002700000D0CDB7DEB786E290E0FC018081882F08
:1002800090E08170992721E0892B09F020E02983F3
:1002900086E290E0FC018081809582708A831B82D7
:1002A00087E08C8380910D0190910E018230910541
:1002B00009F454C08330910528F4009751F0019758
:1002C00009F157C08330910589F1049709F44BC0B7
:1002D00050C08981882339F081E090E090930E012D
:1002E00080930D0146C08A81882339F083E090E035
:1002F00090930E0180930D013CC010920E0110925C
:100300000D0137C08981882339F081E090E0909316
:100310000E0180930D012DC08981882349F582E06B
:1003200090E090930E0180930D0123C08A81882371
:1003300031F083E090E090930E0180930D018A816B
:10034000882339F484E090E090930E0180930D01AE
:1003500010C010920E0110920D010BC010920E01F0
:1003600010920D0106C010920E0110920D0101C0F5
:10037000000080910D0190910E018230910531F0C5
:100380008430910599F0892B09F125C090910B01DA
:100390008B819817E9F08091040186958093040180
:1003A00080910B018F5F80930B0112C090910B0124
:1003B0008C81981779F080910401880F8093040153
:1003C00080910B01815080930B0104C0000003C099
:1003D000000001C0000082E290E020910401FC01D5
:1003E000208385E290E020910C01FC012083000035
:1003F0000F900F900F900F90DF91CF910895CF93B2
:10040000DF9300D000D0CDB7DEB781E290E02FEFD0
:10041000FC01208382E290E0FC01108284E290E003
:100420002FEFFC01208385E290E0FC01108287E23F
:1004300090E0FC01108288E290E02FEFFC01208325
:100440008CE291E0A0E0B0E089839A83AB83BC8327
:1004500089819A81AB81BC81BC01CD01D8DE34DEBB
:1004600010920E0110920D0100DF00008091060134
:0E0470008823E1F310920601F7CFF894FFCF36
:06047E0001000000010076
:00000001FF
