:1000000045C0000060C000005EC000005CC0000091
:100010005AC0000058C0000056C0000054C0000084
:1000200052C0000050C000004EC000004CC0000094
:100030004AC000006DC0000046C0000044C000007F
:1000400042C0000040C000003EC000003CC00000B4
:100050003AC0000038C0000036C0000034C00000C4
:1000600032C0000030C000002EC000002CC00000D4
:100070002AC0000028C0000026C0000024C00000E4
:1000800022C0000020C000001EC0000011241FBEBE
:10009000CFEFD0E4DEBFCDBF11E0A0E0B1E0EAE9F0
:1000A000F2E000E00BBF02C007900D92A630B1074E
:1000B000D9F721E0A6E0B1E001C01D92AD30B20752
:1000C000E1F7D2D0E8C09CCF8BE0809381008DE730
:1000D00090E0909389008093880082E080936F0085
:1000E000109285001092840080910101909102018C
:1000F000A0910301B091040180930701909308013E
:10010000A0930901B0930A018FB780688FBF08954B
:100110001F920F920FB60F9211248F939F93AF935C
:10012000BF938091070190910801A0910901B091BE
:100130000A010197A109B109809307019093080171
:10014000A0930901B0930A01892B8A2B8B2B99F478
:1001500081E080930B018091010190910201A091B7
:100160000301B09104018093070190930801A093CB
:100170000901B0930A01BF91AF919F918F910F90A8
:100180000FBE0F901F9018956093010170930201AC
:100190008093030190930401609307017093080119
:1001A0008093090190930A01089586B1282F217048
:1001B00086B18095827090910C01923041F128F4C3
:1001C000992341F09130C1F027C0933079F09430F9
:1001D000C9F022C0882321F083E080930C013EC047
:1001E00021113CC081E080930C0138C0811136C0E0
:1001F00084E080930C0114C0222381F182E080937B
:100200000C011CC081110CC010920C0127C02223CC
:10021000A9F010920C0122C0923081F09430F1F4D8
:10022000809106018823D1F090910001990F91608F
:100230009093000181508093060110C080910601C7
:10024000873061F080910001869580588BB980934A
:100250000001809106018F5F809306018FEF82B9C4
:100260008091000185B908958FEF81B912B884B9E2
:1002700015B817B888B964E670E080E090E084DFD4
:1002800023DF10920C0191DF80910B018823E1F3B1
:0A02900010920B01F8CFF894FFCF95
:06029A007F0100000000DE
:00000001FF
