:1000000045C0000060C000005EC000005CC0000091
:100010005AC0000058C0000056C0000054C0000084
:1000200052C0000050C000004EC000004CC0000094
:100030004AC00000B9C0000046C0000044C0000033
:1000400042C0000040C000003EC000003CC00000B4
:100050003AC0000038C0000036C0000034C00000C4
:1000600032C0000030C000002EC000002CC00000D4
:100070002AC0000028C0000026C0000024C00000E4
:1000800022C0000020C000001EC0000011241FBEBE
:10009000CFEFD0E4DEBFCDBF11E0A0E0B1E0E0E9FA
:1000A000FCE000E00BBF02C007900D92AE36B10736
:1000B000D9F721E0AEE6B1E001C01D92A639B20742
:1000C000E1F721D4E3C59CCFCF93DF9300D000D0DC
:1000D000CDB7DEB769837A838B839C8389819A81CC
:1000E000AB81BC818093000190930101A093020138
:1000F000B09303018091000190910101A091020150
:10010000B091030180936F0190937001A0937101EE
:10011000B093720100000F900F900F900F90DF913D
:10012000CF910895CF93DF93CDB7DEB781E890E00C
:100130002BE0FC01208388E890E02DE730E0FC0113
:10014000318320838FE690E022E0FC01208384E865
:1001500090E0FC01118210828091000190910101D8
:10016000A0910201B091030180936F0190937001FF
:10017000A0937101B09372018FE590E02FE530E01C
:10018000F90120812068FC0120830000DF91CF91DC
:100190000895CF93DF93CDB7DEB781E080936E01F2
:1001A0000000DF91CF9108951F920F9200905F00A1
:1001B0000F92112400905B000F922F933F934F9367
:1001C0005F936F937F938F939F93AF93BF93EF93BF
:1001D000FF93CF93DF93CDB7DEB780916F019091FE
:1001E0007001A0917101B09172010197A109B1094B
:1001F00080936F0190937001A0937101B09372018D
:1002000080916F0190917001A0917101B091720184
:10021000892B8A2B8B2B89F4BCDF80910001909174
:100220000101A0910201B091030180936F019093AD
:100230007001A0937101B09372010000DF91CF9122
:10024000FF91EF91BF91AF919F918F917F916F91AE
:100250005F914F913F912F910F9000925B000F9013
:1002600000925F000F901F901895CF93DF93CDB74A
:10027000DEB72C970FB6F894DEBF0FBECDBF6D83EF
:100280007E838F83988729873A874B875C878D8108
:100290009E81AF81B88529853A854B855C85BC01F7
:1002A000CD01D2D4DC01CB0189839A83AB83BC839B
:1002B00089819A81AB81BC81892B8A2B8B2B29F474
:1002C00089859A85AB85BC8511C089859A85AB8562
:1002D000BC858D839E83AF83B88789819A81AB81EA
:1002E000BC8189879A87AB87BC87D1CFBC01CD0100
:1002F0002C960FB6F894DEBF0FBECDBFDF91CF9125
:100300000895CF93DF93CDB7DEB781E01AD0000018
:10031000DF91CF910895CF93DF93CDB7DEB784E619
:1003200090E0ACD088E30DD086E00BD08FE009D010
:1003300081E007D08AE090E0A1D00000DF91CF916A
:100340000895CF93DF931F92CDB7DEB7898388E2FC
:1003500090E028E230E0F90120812F77FC01208332
:100360008BE290E02981FC01208388E290E028E282
:1003700030E0F90120812064FC012083000088E244
:1003800090E028E230E0F90120812F7BFC012083FE
:1003900082E090E073D000000F90DF91CF9108953C
:1003A000CF93DF931F92CDB7DEB7898388E290E0C9
:1003B00028E230E0F90120812068FC0120838BE2F3
:1003C00090E02981FC01208388E290E028E230E07F
:1003D000F90120812064FC012083000088E290E084
:1003E00028E230E0F90120812F7BFC01208381E0AD
:1003F00090E044D000000F90DF91CF910895CF930B
:10040000DF9300D000D0CDB7DEB78A837C836B83C7
:1004100078DF8A8189830FC0898191E0980F998361
:1004200018D08B819C819C012F5F3F4F3C832B8395
:10043000FC018081B5DF8B819C81FC018081882358
:1004400059F700000F900F900F900F90DF91CF9110
:100450000895CF93DF931F92CDB7DEB7898389814B
:10046000813120F4898181586CDF03C089818155F5
:1004700068DF00000F90DF91CF910895CF93DF9355
:1004800000D000D000D0CDB7DEB79E838D831A8216
:10049000198213C01C821B8206C000008B819C81C4
:1004A00001969C838B838B819C8187309340ACF336
:1004B00089819A8101969A83898329813A818D81E4
:1004C0009E812817390734F3000026960FB6F8945A
:1004D000DEBF0FBECDBFDF91CF910895CF93DF93E5
:1004E00000D0CDB7DEB789836A8382E290E02981AC
:1004F000FC01208385E290E02A81FC01208300003A
:100500000F900F90DF91CF910895CF93DF9300D09C
:1005100000D000D0CDB7DEB79E838D8386E290E019
:10052000FC01808180958270898386E290E0FC01E5
:100530008081809584708A8387E08B8380EE8C83B2
:100540008D819E8181309105F9F0823091051CF4F6
:10055000892B39F035C08330910529F1049759F181
:100560002FC08981882329F081E090E09E838D83CC
:100570002FC08A81882329F083E090E09E838D83B9
:1005800027C01E821D8224C08981882321F484E033
:1005900090E09E838D8389818823B9F081E090E08B
:1005A0009E838D8312C08A81882389F484E090E041
:1005B0009E838D830CC084E090E09E838D8308C071
:1005C00084E090E09E838D8303C0000001C00000A2
:1005D0008D819E8181309105A9F0823091051CF4B6
:1005E000892B39F03EC083309105F9F0049781F1F1
:1005F00038C0809165018093650180916601809388
:1006000066012FC0909165018B81891728F4809134
:1006100065018695809365018091650180936501F0
:1006200080916601809366011CC0909165018C8168
:10063000981728F480916501880F80936501809157
:10064000650180936501809166018093660109C010
:1006500080916501809365018091660180936601B8
:1006600000009091660180916501692F37DF8D81CF
:100670009E8126960FB6F894DEBF0FBECDBFDF91E8
:10068000CF910895CF93DF9300D000D0CDB7DEB7E0
:100690009C838B838B819C81892B79F581E090E011
:1006A0009A83898321C08981D4DE80912B01282FF0
:1006B00030E089819A81820F931F02978C5F9E4F51
:1006C000FC0180816DDE80912B01282F30E0898133
:1006D0009A81820F931F899711F410922B018981BF
:1006E0009A8101969A83898389819A814197D8F268
:1006F00080912B018F5F80932B018B819C810F90C8
:100700000F900F900F90DF91CF910895CF93DF93CB
:1007100000D000D0CDB7DEB79C838B838B819C81CA
:10072000892B79F581E090E09A83898321C08981C2
:1007300090DE80916401282F30E089819A81820FB8
:10074000931F0297845D9E4FFC01808129DE80917A
:100750006401282F30E089819A81820F931FC99705
:1007600011F41092640189819A8101969A83898398
:1007700089819A814197D8F2809164018F5F80933B
:1007800064018B819C810F900F900F900F90DF91EF
:10079000CF910895CF93DF9300D0CDB7DEB786E237
:1007A00090E0FC018081882F90E08170992721E002
:1007B000892B09F020E029831A8280918C01909185
:1007C0008D0181309105D1F08130910530F082307A
:1007D000910539F10397A9F139C08981882321F462
:1007E00010928D0110928C018981882361F181E042
:1007F00090E090938D0180938C0125C0898188239E
:1008000031F482E090E090938D0180938C01898196
:100810008823D9F081E090E090938D0180938C0142
:1008200014C08981882339F083E090E090938D0192
:1008300080938C0106C082E090E090938D018093BC
:100840008C01000003C0000001C0000080918C01F9
:1008500090918D018130910509F18130910530F041
:100860008230910539F0039749F01AC080E090E09A
:1008700009DF17C080E090E049DF13C08981882339
:1008800079F481E08A838A818093730181E0809387
:10089000730167E671E081E0B2DD02C0000001C0D3
:1008A000000000000F900F90DF91CF910895CF933B
:1008B000DF93CDB7DEB780918E0190918F01892BA8
:1008C00081F480917301813039F481E090E090935C
:1008D0008F0180938E0105C010928F0110928E01BE
:1008E000000080918E0190918F01009739F001975F
:1008F00009F005C080E090E008DE01C000000000C3
:10090000DF91CF9108950F931F93CF93DF93CDB7CE
:10091000DEB7A8970FB6F894DEBF0FBECDBF84E256
:1009200090E02FEFFC01208385E290E0FC01108233
:1009300087E290E020EFFC01208388E290E02FE046
:10094000FC01208381E290E02FEFFC01208382E212
:1009500090E0FC0110828AE290E02FEFFC012083FE
:100960008BE290E0FC01108288EC90E0A0E0B0E027
:100970008B839C83AD83BE8388EC90E0A0E0B0E0E5
:100980008F839887A987BA8784E190E0A0E0B0E0E0
:100990008B879C87AD87BE8781E090E0A0E0B0E0C8
:1009A0008F87988BA98BBA8B2F81388549855A857B
:1009B0008B819C81AD81BE81BC01CD0156DCDC0107
:1009C000CB018F87988BA98BBA8B8F859889A98942
:1009D000BA898B8B9C8BAD8BBE8B8B819C81AD81BF
:1009E000BE812B893C894D895E89BC01CD012CD10A
:1009F000DA01C9018F8B988FA98FBA8F8F81988563
:100A0000A985BA852B893C894D895E89BC01CD01B8
:100A10001BD1DA01C9018B8F9C8FAD8FBE8F8B8567
:100A20009C85AD85BE852B893C894D895E89BC013D
:100A3000CD010AD1DA01C9018F8F98A3A9A3BAA366
:100A400084E791E09EA38DA38FE791E098A78FA301
:100A500082E090E09CA38BA3109274018F89988D03
:100A6000A98DBA8D8093750190937601A09377013B
:100A7000B09378018F89988DA98DBA8D8093790173
:100A800090937A01A0937B01B0937C018AEC93E070
:100A900090937E0180937D0110927F018B8D9C8DC0
:100AA000AD8DBE8D8093800190938101A0938201D2
:100AB000B09383018B8D9C8DAD8DBE8D8093840111
:100AC00090938501A0938601B093870187E594E018
:100AD00090938901809388018B899C89AD89BE8917
:100AE000BC01CD01F1DA1EDB16DC0BDC1A821982A7
:100AF0009BC089819A81880F991F9E012F5F3F4F6C
:100B0000820F931F8496FC0180819181FC012581D5
:100B100036814781508589819A81880F991FBE014E
:100B20006F5F7F4F860F971F8496FC0180819181B4
:100B3000FC0181819281A381B481281739074A077A
:100B40005B0709F045C089819A81880F991F9E0132
:100B50002F5F3F4F820F931F8496FC01008111810C
:100B600089819A81880F991F9E012F5F3F4F820FC5
:100B7000931F8496FC0180819181FC01218532853F
:100B800089819A81880F991FAE014F5F5F4F840F53
:100B9000951F8496FC0180819181FC018081082E43
:100BA000000C990BF9010995F801808389819A81DC
:100BB000880F991F9E012F5F3F4F820F931F8496CE
:100BC000FC0180819181FC011582168217821086BA
:100BD00089819A81880F991F9E012F5F3F4F820F55
:100BE000931F8496FC012081318189819A81880F2D
:100BF000991FAE014F5F5F4F840F951F8496FC01D4
:100C000080819181FC0185819681A781B0850196C3
:100C1000A11DB11DF90185839683A783B0878981C2
:100C20009A8101969A83898329813A818BA19CA11B
:100C30002817390708F45DCF000080916E018823E2
:100C4000E1F310926E0152CFA1E21A2EAA1BBB1B38
:100C5000FD010DC0AA1FBB1FEE1FFF1FA217B30788
:100C6000E407F50720F0A21BB30BE40BF50B661F9E
:100C7000771F881F991F1A9469F760957095809562
:100C800090959B01AC01BD01CF010895F894FFCF71
:100C90000100000020202041726520796F752072CC
:100CA0006561647920746F20706C617920504F4EBB
:100CB000473F2020202020202020200120202050DD
:100CC0006C617965722031206973206F6E207468C1
:100CD00065206C65667420506C61796572203220E5
:100CE0006973206F6E20746865207269676874206C
:0E0CF0002020202001387F52656164792100A8
:00000001FF
