S0100000506F6E675F6C63642E73726563EE
S113000045C0000060C000005EC000005CC000008D
S11300105AC0000058C0000056C0000054C0000080
S113002052C0000050C000004EC000004CC0000090
S11300304AC00000B9C0000046C0000044C000002F
S113004042C0000040C000003EC000003CC00000B0
S11300503AC0000038C0000036C0000034C00000C0
S113006032C0000030C000002EC000002CC00000D0
S11300702AC0000028C0000026C0000024C00000E0
S113008022C0000020C000001EC0000011241FBEBA
S1130090CFEFD0E4DEBFCDBF11E0A0E0B1E0E4EBF0
S11300A0F8E000E00BBF02C007900D92AC36B10738
S11300B0D9F721E0ACE6B1E001C01D92A938B2073E
S11300C0E1F7D5D2F5C39CCFCF93DF9300D000D016
S11300D0CDB7DEB769837A838B839C8389819A81C8
S11300E0AB81BC818093000190930101A093020134
S11300F0B09303018091000190910101A09102014C
S1130100B091030180936D0190936E01A0936F01F0
S1130110B093700100000F900F900F900F90DF913B
S1130120CF910895CF93DF93CDB7DEB781E890E008
S11301302BE0FC01208388E890E02DE730E0FC010F
S1130140318320838FE690E022E0FC01208384E861
S113015090E0FC01118210828091000190910101D4
S1130160A0910201B091030180936D0190936E01FF
S1130170A0936F01B09370018FE590E02FE530E01C
S1130180F90120812068FC0120830000DF91CF91D8
S11301900895CF93DF93CDB7DEB781E080936C01F0
S11301A00000DF91CF9108951F920F9200905F009D
S11301B00F92112400905B000F922F933F934F9363
S11301C05F936F937F938F939F93AF93BF93EF93BB
S11301D0FF93CF93DF93CDB7DEB780916D019091FC
S11301E06E01A0916F01B09170010197A109B1094D
S11301F080936D0190936E01A0936F01B093700191
S113020080916D0190916E01A0916F01B091700188
S1130210892B8A2B8B2B89F4BCDF80910001909170
S11302200101A0910201B091030180936D019093AB
S11302306E01A0936F01B09370010000DF91CF9124
S1130240FF91EF91BF91AF919F918F917F916F91AA
S11302505F914F913F912F910F9000925B000F900F
S113026000925F000F901F901895CF93DF93CDB746
S1130270DEB781E01AD00000DF91CF910895CF93CB
S1130280DF93CDB7DEB784E690E0ACD088E30DD041
S113029086E00BD08FE009D081E007D08AE090E0BF
S11302A0A1D00000DF91CF910895CF93DF931F92E7
S11302B0CDB7DEB7898388E290E028E230E0F90127
S11302C020812F77FC0120838BE290E02981FC01BF
S11302D0208388E290E028E230E0F9012081206464
S11302E0FC012083000088E290E028E230E0F9017C
S11302F020812F7BFC01208382E090E073D00000FA
S11303000F90DF91CF910895CF93DF931F92CDB7D4
S1130310DEB7898388E290E028E230E0F9012081A9
S11303202068FC0120838BE290E02981FC0120837A
S113033088E290E028E230E0F90120812064FC01A9
S11303402083000088E290E028E230E0F901208177
S11303502F7BFC01208381E090E044D000000F90CB
S1130360DF91CF910895CF93DF9300D000D0CDB724
S1130370DEB78A837C836B8378DF8A8189830FC0AD
S1130380898191E0980F998318D08B819C819C017D
S11303902F5F3F4F3C832B83FC018081B5DF8B8132
S11303A09C81FC018081882359F700000F900F90F5
S11303B00F900F90DF91CF910895CF93DF931F9209
S11303C0CDB7DEB789838981813120F48981815851
S11303D06CDF03C08981815568DF00000F90DF91D5
S11303E0CF910895CF93DF9300D000D000D0CDB744
S11303F0DEB79E838D831A82198213C01C821B82EE
S113040006C000008B819C8101969C838B838B8129
S11304109C8187309340ACF389819A8101969A83B9
S1130420898329813A818D819E812817390734F384
S1130430000026960FB6F894DEBF0FBECDBFDF9145
S1130440CF910895CF93DF9300D000D0CDB7DEB71E
S11304509C838B838B819C81892B79F581E090E04F
S11304609A83898321C08981A8DF80912B01282F59
S113047030E089819A81820F931F02978C5F9E4F8F
S1130480FC01808141DF80912B01282F30E089819C
S11304909A81820F931F899711F410922B018981FD
S11304A09A8101969A83898389819A814197D8F2A6
S11304B080912B018F5F80932B018B819C810F9006
S11304C00F900F900F90DF91CF910895CF93DF930A
S11304D000D000D0CDB7DEB79C838B838B819C8109
S11304E0892B79F581E090E09A83898321C0898101
S11304F064DF80916401282F30E089819A81820F22
S1130500931F0297845D9E4FFC018081FDDE8091E4
S11305106401282F30E089819A81820F931FC99743
S113052011F41092640189819A8101969A838983D6
S113053089819A814197D8F2809164018F5F809379
S113054064018B819C810F900F900F900F90DF912D
S1130550CF910895CF93DF9300D0CDB7DEB786E275
S113056090E0FC018081882F90E08170992721E040
S1130570892B09F020E029831A8280917F019091D0
S1130580800181309105D1F08130910530F08230C5
S1130590910539F10397A9F139C08981882321F4A0
S11305A01092800110927F018981882361F181E09A
S11305B090E09093800180937F0125C089818823F6
S11305C031F482E090E09093800180937F018981EF
S11305D08823D9F081E090E09093800180937F019B
S11305E014C08981882339F083E090E090938001DE
S11305F080937F0106C082E090E090938001809315
S11306007F01000003C0000001C0000080917F0151
S1130610909180018130910509F18130910530F08C
S11306208230910539F0039749F01AC080E090E0D8
S113063009DF17C080E090E049DF13C08981882377
S113064079F481E08A838A818093710181E08093C7
S1130650710165E671E081E086DE02C0000001C040
S1130660000000000F900F90DF91CF9108950F9339
S11306701F93CF93DF93CDB7DEB72E970FB6F894C1
S1130680DEBF0FBECDBF84E290E02FEFFC012083DC
S113069085E290E0FC01108287E290E020EFFC010B
S11306A0208388E290E02FE0FC01208381E290E047
S11306B02FEFFC01208382E290E0FC0110828AE2A9
S11306C090E02FEFFC0120838BE290E0FC0110828C
S11306D08FE090E0A0E0B0E08B839C83AD83BE8389
S11306E08FE090E0A0E0B0E08F839887A987BA8775
S11306F082E791E09E878D8781E090E09C878B87DD
S1130700109272018F819885A985BA8580937301AF
S113071090937401A0937501B09376018F819885AD
S1130720A985BA858093770190937801A093790184
S1130730B0937A018AEA92E090937C0180937B01E2
S11307408B819C81AD81BE81BC01CD01BDDCEADC25
S113075096DD8BDD1A8219829BC089819A81880F6C
S1130760991F9E012F5F3F4F820F931F0C96FC0130
S113077080819181FC012581368147815085898161
S11307809A81880F991FBE016F5F7F4F860F971F55
S11307900C96FC0180819181FC0181819281A3816D
S11307A0B481281739074A075B0709F045C08981D6
S11307B09A81880F991F9E012F5F3F4F820F931FCD
S11307C00C96FC010081118189819A81880F991FFF
S11307D09E012F5F3F4F820F931F0C96FC01808177
S11307E09181FC012185328589819A81880F991F25
S11307F0AE014F5F5F4F840F951F0C96FC01808103
S11308009181FC018081082E000C990BF901099556
S1130810F801808389819A81880F991F9E012F5F37
S11308203F4F820F931F0C96FC0180819181FC0144
S1130830158216821782108689819A81880F991FE2
S11308409E012F5F3F4F820F931F0C96FC01208166
S1130850318189819A81880F991FAE014F5F5F4F63
S1130860840F951F0C96FC0180819181FC01858188
S11308709681A781B0850196A11DB11DF9018583DB
S11308809683A783B08789819A8101969A83898305
S113089029813A818B859C852817390708F45DCF17
S11308A0000080916C018823E1F310926C0152CF17
S10708B0F894FFCFE6
S11308B40100000020202041726520796F752072A8
S11308C46561647920746F20706C617920504F4E97
S11308D4473F2020202020202020200120202050B9
S11308E46C617965722031206973206F6E2074689D
S11308F465206C65667420506C61796572203220C1
S11309046973206F6E207468652072696768742047
S10F09142020202001526561647921003C
S9030000FC
