:1000000045C0000061C000005FC000005DC000008E
:100010005BC0000059C0000057C0000055C0000080
:1000200053C0000051C000004FC000004DC0000090
:100030004BC00000BAC0000047C0000045C000002F
:1000400043C0000041C000003FC000003DC00000B0
:100050003BC0000039C0000037C0000035C00000C0
:1000600033C0000031C000002FC000002DC00000D0
:100070002BC0000029C0000027C0000025C00000E0
:1000800023C0000021C000001FC0000011241FBEBB
:10009000CFEFD0E4DEBFCDBF11E0A0E0B1E0E4EEF1
:1000A000F2E100E00BBF02C007900D92AC37B10740
:1000B000D9F721E0ACE7B1E001C01D92A03DB20745
:1000C000E1F783D60C9470099BCFCF93DF9300D0D8
:1000D00000D0CDB7DEB769837A838B839C83898117
:1000E0009A81AB81BC818093000190930101A09320
:1000F0000201B09303018091000190910101A09150
:100100000201B091030180937D0190937E01A09341
:100110007F01B093800100000F900F900F900F901F
:10012000DF91CF910895CF93DF93CDB7DEB781E80C
:1001300090E02BE0FC01208388E890E02DE730E0A0
:10014000FC01318320838FE690E022E0FC012083D4
:1001500084E890E0FC01118210828091000190916E
:100160000101A0910201B091030180937D01909360
:100170007E01A0937F01B09380018FE590E02FE591
:1001800030E0F90120812068FC0120830000DF912C
:10019000CF910895CF93DF93CDB7DEB781E0809301
:1001A0007C010000DF91CF9108951F920F92009083
:1001B0005F000F92112400905B000F922F933F93EA
:1001C0004F935F936F937F938F939F93AF93BF935F
:1001D000EF93FF93CF93DF93CDB7DEB780917D018F
:1001E00090917E01A0917F01B09180010197A109BA
:1001F000B10980937D0190937E01A0937F01B0931C
:10020000800180917D0190917E01A0917F01B0914C
:100210008001892B8A2B8B2B89F4BCDF8091000114
:1002200090910101A0910201B091030180937D01A1
:1002300090937E01A0937F01B09380010000DF9135
:10024000CF91FF91EF91BF91AF919F918F917F914E
:100250006F915F914F913F912F910F9000925B00B2
:100260000F9000925F000F901F901895CF93DF932F
:10027000CDB7DEB72C970FB6F894DEBF0FBECDBF5B
:100280006D837E838F83988729873A874B875C8726
:100290008D819E81AF81B88529853A854B855C85A6
:1002A000BC01CD01FBD7DC01CB0189839A83AB83F1
:1002B000BC8389819A81AB81BC81892B8A2B8B2B52
:1002C00029F489859A85AB85BC8511C089859A8575
:1002D000AB85BC858D839E83AF83B88789819A81E6
:1002E000AB81BC8189879A87AB87BC87D1CFBC01A2
:1002F000CD012C960FB6F894DEBF0FBECDBFDF91B7
:10030000CF910895CF93DF93CDB7DEB781E01AD0B8
:100310000000DF91CF910895CF93DF93CDB7DEB783
:1003200084E690E0ACD088E30DD086E00BD08FE07F
:1003300009D081E007D08AE090E0A1D00000DF91F1
:10034000CF910895CF93DF931F92CDB7DEB7898306
:1003500088E290E028E230E0F90120812F77FC016B
:1003600020838BE290E02981FC01208388E290E0E9
:1003700028E230E0F90120812064FC0120830000A4
:1003800088E290E028E230E0F90120812F7BFC0137
:10039000208382E090E073D000000F90DF91CF9136
:1003A0000895CF93DF931F92CDB7DEB7898388E29C
:1003B00090E028E230E0F90120812068FC012083F0
:1003C0008BE290E02981FC01208388E290E028E222
:1003D00030E0F90120812064FC012083000088E2E4
:1003E00090E028E230E0F90120812F7BFC0120839E
:1003F00081E090E044D000000F90DF91CF9108950C
:10040000CF93DF9300D000D0CDB7DEB78A837C8353
:100410006B8378DF8A8189830FC0898191E0980F8F
:10042000998318D08B819C819C012F5F3F4F3C8327
:100430002B83FC018081B5DF8B819C81FC01808155
:10044000882359F700000F900F900F900F90DF91C5
:10045000CF910895CF93DF931F92CDB7DEB78983F5
:100460008981813120F4898181586CDF03C08981C1
:10047000815568DF00000F90DF91CF910895CF93F1
:10048000DF9300D000D000D0CDB7DEB79E838D8340
:100490001A82198213C01C821B8206C000008B8145
:1004A0009C8101969C838B838B819C8187309340B8
:1004B000ACF389819A8101969A83898329813A8153
:1004C0008D819E812817390734F3000026960FB6D8
:1004D000F894DEBF0FBECDBFDF91CF910895CF93CB
:1004E000DF9300D000D000D0CDB7DEB79E838D83E0
:1004F00086E290E0FC01808180958870898386E2A5
:1005000090E0FC018081809580718A838EE08B83EE
:1005100080EE8C838D819E8181309105F9F082304F
:1005200091051CF4892B39F035C08330910529F1F0
:10053000049759F12FC08981882329F081E090E048
:100540009E838D832FC08A81882329F083E090E0E9
:100550009E838D8327C01E821D8224C089818823AB
:1005600021F484E090E09E838D8389818823B9F013
:1005700081E090E09E838D8312C08A81882389F474
:1005800084E090E09E838D830CC084E090E09E83A5
:100590008D8308C084E090E09E838D8303C00000BB
:1005A00001C000008D819E8181309105A9F08230CB
:1005B00091051CF4892B39F03EC083309105F9F088
:1005C000049781F138C08091650180936501809125
:1005D0006601809366012FC0909165018B81891718
:1005E00028F480916501869580936501809165016D
:1005F0008093650180916601809366011CC0909193
:1006000065018C81981728F480916501880F80938B
:1006100065018091650180936501809166018093F9
:10062000660109C080916501809365018091660132
:10063000809366010000809165018093BD018091E7
:1006400066018093CF018D819E8126960FB6F89426
:10065000DEBF0FBECDBFDF91CF910895CF93DF9363
:1006600000D0CDB7DEB78A838A818983898180955E
:1006700089838981880F898389818095898389818C
:100680008A838A810F900F90DF91CF910895CF9345
:10069000DF9300D0CDB7DEB78A838A8189838981D1
:1006A00080958983898186958983898180958983CD
:1006B00089818A838A810F900F90DF91CF9108956D
:1006C000CF93DF9300D0CDB7DEB789836A8382E210
:1006D00090E02981FC01208385E290E02A81FC01E1
:1006E000208300000F900F90DF91CF910895CF935A
:1006F000DF9300D0CDB7DEB79A83898389819A8151
:100700008130910589F0823091051CF4892B39F0F4
:1007100018C08230910569F0039781F012C081E022
:1007200090E09A8389830DC082E090E09A83898368
:1007300008C083E090E09A83898303C01A821982FB
:10074000000089819A818130910549F082309105BC
:10075000DCF08230910551F0039779F016C090914A
:10076000CC018091C601692FABDF0FC09091CF0102
:100770008091BD01692FA4DF08C09091BC018091D8
:10078000CB01692F9DDF01C0000089819A810F9004
:100790000F90DF91CF910895CF93DF9300D000D0D9
:1007A00000D0CDB7DEB79E838D8386E290E0FC015A
:1007B000808180958270898386E290E0FC0180814F
:1007C000809584708A838EE08B8380EE8C838D810C
:1007D0009E8181309105F9F0823091051CF4892BBE
:1007E00039F035C08330910529F1049759F12FC0B4
:1007F0008981882329F081E090E09E838D832FC03A
:100800008A81882329F083E090E09E838D8327C02E
:100810001E821D8224C08981882321F484E090E017
:100820009E838D8389818823B9F081E090E09E8347
:100830008D8312C08A81882389F484E090E09E83AE
:100840008D830CC084E090E09E838D8308C084E09B
:1008500090E09E838D8303C0000001C000008D8165
:100860009E8181309105A9F0823091051CF4892B7D
:1008700039F03EC083309105F9F0049781F138C01A
:10088000809167018093670180916801809368017E
:100890002FC0909167018B81891728F4809167019F
:1008A00086958093670180916701809367018091AD
:1008B0006801809368011CC0909167018C81981732
:1008C00028F480916701880F809367018091670108
:1008D00080936701809168018093680109C08091CD
:1008E000670180936701809168018093680100002F
:1008F000809167018093C601809168018093CC014B
:100900008D819E8126960FB6F894DEBF0FBECDBFB7
:10091000DF91CF910895CF93DF9300D000D0CDB772
:10092000DEB786E290E0FC018081882F90E0817044
:10093000992721E0892B09F020E0298386E290E0C5
:10094000FC018081882F90E08170992721E0892B1C
:1009500009F020E02A838FE78B838EEF8C838091D0
:10096000C0019091C1018130910599F181309105CB
:1009700018F0029771F054C088E0809382018FEEE6
:100980008093690182E090E09093C1018093C0015F
:1009900047C0909169018B81891730F482E090E023
:1009A0009093C1018093C001909169018B81981748
:1009B00031F481E090E09093C1018093C00189817E
:1009C000882359F188E0809382018FEE809369013A
:1009D00024C0909169018C81981730F481E090E0F7
:1009E0009093C1018093C001909169018C81981707
:1009F00031F482E090E09093C1018093C00189813D
:100A0000882369F088E0809382018FEE80936901EA
:100A10001092C1011092C00102C0000001C000008C
:100A20008091C0019091C10181309105A1F0813088
:100A30009105F8F0029709F01DC0809169010EDE62
:100A4000809369018091690180936901809182019D
:100A5000809382010FC08091690119DE8093690142
:100A60008091690180936901809182018093820164
:100A700001C00000809182018093CB0180916901C7
:100A80008093BC0100000F900F900F900F90DF91AA
:100A9000CF910895CF93DF9300D000D0CDB7DEB7CC
:100AA0009C838B838B819C81892B79F581E090E0FD
:100AB0009A83898321C08981CDDC80912B01282FE5
:100AC00030E089819A81820F931F02978C5F9E4F3D
:100AD000FC01808166DC80912B01282F30E0898128
:100AE0009A81820F931F899711F410922B018981AB
:100AF0009A8101969A83898389819A814197D8F254
:100B000080912B018F5F80932B018B819C810F90B3
:100B10000F900F900F90DF91CF910895CF93DF93B7
:100B200000D000D0CDB7DEB79C838B838B819C81B6
:100B3000892B79F581E090E09A83898321C08981AE
:100B400089DC80916401282F30E089819A81820FAD
:100B5000931F0297845D9E4FFC01808122DC80916F
:100B60006401282F30E089819A81820F931FC997F1
:100B700011F41092640189819A8101969A83898384
:100B800089819A814197D8F2809164018F5F809327
:100B900064018B819C810F900F900F900F90DF91DB
:100BA000CF910895CF93DF9300D0CDB7DEB786E223
:100BB00090E0FC018081882F90E08170992721E0EE
:100BC000892B09F020E029831A828091C20190913B
:100BD000C30181309105D1F08130910530F0823030
:100BE000910539F10397A9F139C08981882321F44E
:100BF0001092C3011092C2018981882361F181E0C2
:100C000090E09093C3018093C20125C0898188231D
:100C100031F482E090E09093C3018093C201898116
:100C20008823D9F081E090E09093C3018093C201C2
:100C300014C08981882339F083E090E09093C30148
:100C40008093C20106C082E090E09093C30180933C
:100C5000C201000003C0000001C000008091C20179
:100C60009091C3018130910509F18130910530F0F7
:100C70008230910539F0039749F01AC080E090E086
:100C800009DF17C080E090E049DF13C08981882325
:100C900079F481E08A838A818093810181E0809365
:100CA00081016AE671E081E0ABDB02C0000001C0B7
:100CB000000000000F900F90DF91CF910895CF9327
:100CC000DF93CDB7DEB78091C7019091C801892B22
:100CD00081F480918101813039F481E090E090933A
:100CE000C8018093C70105C01092C8011092C701C6
:100CF00000008091C7019091C801009739F00197D9
:100D000009F005C080E090E047DD01C00000000070
:100D1000DF91CF910895CF93DF93CDB7DEB7809168
:100D2000C4019091C501892B81F4809181018130AA
:100D300039F481E090E09093C5018093C40105C02F
:100D40001092C5011092C40100008091C4019091DD
:100D5000C501009739F0019709F005C080E090E0E7
:100D6000BEDB01C000000000DF91CF910895CF935A
:100D7000DF93CDB7DEB78091BE019091BF010097A0
:100D800019F0019789F011C080918101813039F407
:100D900081E090E09093BF018093BE0106C0109265
:100DA000BF011092BE0101C000008091BE01909170
:100DB000BF01009729F0019709F003C0ACDD01C025
:100DC00000000000DF91CF9108950F931F93CF9300
:100DD000DF93CDB7DEB7EE970FB6F894DEBF0FBE48
:100DE000CDBF81E290E02FEFFC01208382E290E012
:100DF000FC01108284E290E02FEFFC01208385E269
:100E000090E0FC01108287E290E020ECFC0120835E
:100E100088E290E02FE1FC0120838AE290E02FEF4E
:100E2000FC0120838BE290E0FC01108288EC90E0D2
:100E3000A0E0B0E08B839C83AD83BE8384E690E02A
:100E4000A0E0B0E08F839887A987BA8784E690E016
:100E5000A0E0B0E08B879C87AD87BE8782E390E0FF
:100E6000A0E0B0E08F87988BA98BBA8B85E090E0EB
:100E7000A0E0B0E08B8B9C8BAD8BBE8B81E090E0D3
:100E8000A0E0B0E08F8B988FA98FBA8F2F81388523
:100E900049855A858B819C81AD81BE81BC01CD0184
:100EA000E5D9DC01CB018F8B988FA98FBA8F2B8569
:100EB0003C854D855E858F89988DA98DBA8DBC0145
:100EC000CD01D4D9DC01CB018F8B988FA98FBA8F3C
:100ED0002F85388949895A898F89988DA98DBA8D2E
:100EE000BC01CD01C3D9DC01CB018F8B988FA98FB9
:100EF000BA8F2B893C894D895E898F89988DA98D00
:100F0000BA8DBC01CD01B2D9DC01CB018F8B988F9A
:100F1000A98FBA8F8F89988DA98DBA8D8B8F9C8F51
:100F2000AD8FBE8F8B819C81AD81BE812B8D3C8D21
:100F30004D8D5E8DBC01CD01B1D1DA01C9018F8F1C
:100F400098A3A9A3BAA38F819885A985BA852B8D6B
:100F50003C8D4D8D5E8DBC01CD01A0D1DA01C90162
:100F60008BA39CA3ADA3BEA38F859889A989BA89B9
:100F70002B8D3C8D4D8D5E8DBC01CD018FD1DA0165
:100F8000C9018FA398A7A9A7BAA78B859C85AD8512
:100F9000BE852B8D3C8D4D8D5E8DBC01CD017ED1EE
:100FA000DA01C9018BA79CA7ADA7BEA78B899C8935
:100FB000AD89BE892B8D3C8D4D8D5E8DBC01CD01E3
:100FC0006DD1DA01C9018FA798ABA9ABBAAB8AE0A2
:100FD000E1E7F1E0DE01D59601900D928A95E1F707
:100FE00085E090E09CAB8BAB109283018F8D98A134
:100FF000A9A1BAA18093840190938501A093860151
:10100000B09387018F8D98A1A9A1BAA1809388017F
:1010100090938901A0938A01B0938B0182ED95E0B2
:1010200090938D0180938C0110928E018BA19CA1D5
:10103000ADA1BEA180938F0190939001A0939101E7
:10104000B09392018BA19CA1ADA1BEA1809393010D
:1010500090939401A0939501B09396018FE596E04B
:101060009093980180939701109299018BA59CA56C
:10107000ADA5BEA580939A0190939B01A0939C017E
:10108000B0939D018BA59CA5ADA5BEA580939E01A7
:1010900090939F01A093A001B093A1018BE896E0EB
:1010A0009093A3018093A2011092A4018FA198A50F
:1010B000A9A5BAA58093A5019093A601A093A70125
:1010C000B093A8018FA198A5A9A5BAA58093A9015D
:1010D0009093AA01A093AB01B093AC0187EB96E08B
:1010E0009093AE018093AD011092AF018FA598A9A6
:1010F000A9A9BAA98093B0019093B101A093B201BC
:10110000B093B3018FA598A9A9A9BAA98093B401F6
:101110009093B501A093B601B093B70187E793E030
:101120009093B9018093B8018B8D9C8DAD8DBE8D50
:10113000BC01CD010E9465000E949300EDD8E2D869
:101140001A8219829BC089819A81880F991F9E01FA
:101150002F5F3F4F820F931FC496FC0180819181C6
:10116000FC01258136814781508589819A81880FCC
:10117000991FBE016F5F7F4F860F971FC496FC01BA
:1011800080819181FC0181819281A381B4812817A2
:1011900039074A075B0709F045C089819A81880FA2
:1011A000991F9E012F5F3F4F820F931FC496FC0132
:1011B0000081118189819A81880F991F9E012F5F7B
:1011C0003F4F820F931FC496FC0180819181FC01E7
:1011D0002185328589819A81880F991FAE014F5FE1
:1011E0005F4F840F951FC496FC0180819181FC01A3
:1011F0008081082E000C990BF9010995F801808374
:1012000089819A81880F991F9E012F5F3F4F820F1E
:10121000931FC496FC0180819181FC011582168286
:101220001782108689819A81880F991F9E012F5FEE
:101230003F4F820F931FC496FC0120813181898129
:101240009A81880F991FAE014F5F5F4F840F951FE2
:10125000C496FC0180819181FC0185819681A781E2
:10126000B0850196A11DB11DF90185839683A783E1
:10127000B08789819A8101969A83898329813A81ED
:101280008BA99CA92817390708F45DCF000080912D
:101290007C018823E1F310927C0152CFA1E21A2E47
:1012A000AA1BBB1BFD010DC0AA1FBB1FEE1FFF1F0A
:1012B000A217B307E407F50720F0A21BB30BE40B5A
:1012C000F50B661F771F881F991F1A9469F76095A1
:1012D0007095809590959B01AC01BD01CF0108955B
:0412E000F894FFCFB0
:1012E4000100000020202041726520796F75207272
:1012F4006561647920746F20706C617920504F4E61
:10130400473F202020202020202020012020205082
:101314006C617965722031206973206F6E20746866
:1013240065206C65667420506C617965722032208A
:101334006973206F6E207468652072696768742011
:10134400202020200138FE387FFF52656164792116
:0C1354000083018E019901A401AF01008B
:00000001FF
