S01300004C616231305F70617274322E7372656359
S113000045C0000060C000005EC000005CC000008D
S11300105AC0000058C0000056C0000054C0000080
S113002052C0000050C000004EC000004CC0000090
S11300304AC00000B9C0000046C0000044C000002F
S113004042C0000040C000003EC000003CC00000B0
S11300503AC0000038C0000036C0000034C00000C0
S113006032C0000030C000002EC000002CC00000D0
S11300702AC0000028C0000026C0000024C00000E0
S113008022C0000020C000001EC0000011241FBEBA
S1130090CFEFD0E4DEBFCDBF11E0A0E0B1E0EEEBE6
S11300A0F6E000E00BBF02C007900D92AA33B1073F
S11300B0D9F721E0AAE3B1E001C01D92AA34B20746
S11300C0E1F7DAD1FAC29CCFCF93DF9300D000D00E
S11300D0CDB7DEB769837A838B839C8389819A81C8
S11300E0AB81BC818093000190930101A093020134
S11300F0B09303018091000190910101A09102014C
S1130100B091030180933B0190933C01A0933D0186
S1130110B0933E0100000F900F900F900F90DF916D
S1130120CF910895CF93DF93CDB7DEB781E890E008
S11301302BE0FC01208388E890E02DE730E0FC010F
S1130140318320838FE690E022E0FC01208384E861
S113015090E0FC01118210828091000190910101D4
S1130160A0910201B091030180933B0190933C0163
S1130170A0933D01B0933E018FE590E02FE530E080
S1130180F90120812068FC0120830000DF91CF91D8
S11301900895CF93DF93CDB7DEB781E080933A0122
S11301A00000DF91CF9108951F920F9200905F009D
S11301B00F92112400905B000F922F933F934F9363
S11301C05F936F937F938F939F93AF93BF93EF93BB
S11301D0FF93CF93DF93CDB7DEB780913B0190912E
S11301E03C01A0913D01B0913E010197A109B109E3
S11301F080933B0190933C01A0933D01B0933E0159
S113020080913B0190913C01A0913D01B0913E0150
S1130210892B8A2B8B2B89F4BCDF80910001909170
S11302200101A0910201B091030180933B019093DD
S11302303C01A0933D01B0933E010000DF91CF91BA
S1130240FF91EF91BF91AF919F918F917F916F91AA
S11302505F914F913F912F910F9000925B000F900F
S113026000925F000F901F901895CF93DF93CDB746
S1130270DEB781E01AD00000DF91CF910895CF93CB
S1130280DF93CDB7DEB784E690E082D088E30DD06B
S113029086E00BD08FE009D081E007D08AE090E0BF
S11302A077D00000DF91CF910895CF93DF931F9211
S11302B0CDB7DEB7898388E290E028E230E0F90127
S11302C020812F77FC0120838BE290E02981FC01BF
S11302D0208388E290E028E230E0F9012081206464
S11302E0FC012083000088E290E028E230E0F9017C
S11302F020812F7BFC01208382E090E049D0000024
S11303000F90DF91CF910895CF93DF931F92CDB7D4
S1130310DEB7898388E290E028E230E0F9012081A9
S11303202068FC0120838BE290E02981FC0120837A
S113033088E290E028E230E0F90120812064FC01A9
S11303402083000088E290E028E230E0F901208177
S11303502F7BFC01208381E090E01AD000000F90F5
S1130360DF91CF910895CF93DF931F92CDB7DEB77E
S113037089838981813120F48981815896DF03C082
S11303808981815592DF00000F90DF91CF9108950C
S1130390CF93DF9300D000D000D0CDB7DEB79E83DB
S11303A08D831A82198213C01C821B8206C000002E
S11303B08B819C8101969C838B838B819C8187306C
S11303C09340ACF389819A8101969A838983298128
S11303D03A818D819E812817390734F300002696CF
S11303E00FB6F894DEBF0FBECDBFDF91CF91089555
S11303F0CF93DF9300D000D0CDB7DEB79C838B833F
S11304008B819C81892B79F581E090E09A838983A3
S113041021C08981A8DF80913801282F30E08981AB
S11304209A81820F931F02978C5F9E4FFC018081FB
S11304306BDF80913801282F30E089819A81820F07
S1130440931FC59711F41092380189819A810196FE
S11304509A83898389819A814197D8F2809138015E
S11304608F5F809338018B819C810F900F900F9048
S11304700F90DF91CF9108950F931F93CF93DF9344
S1130480CDB7DEB72E970FB6F894DEBF0FBECDBF43
S113049084E290E02FEFFC01208385E290E0FC01F0
S11304A0108287E290E020EFFC01208388E290E054
S11304B02FE0FC01208381E290E02FEFFC012083F8
S11304C082E290E0FC0110828AE290E02FEFFC01CE
S11304D020838BE290E0FC0110828FE090E0A0E0AA
S11304E0B0E08B839C83AD83BE838FE090E0A0E07B
S11304F0B0E08F839887A987BA878FE391E09E87BE
S11305008D8781E090E09C878B8710923F018F81DB
S11305109885A985BA858093400190934101A09361
S11305204201B09343018F819885A985BA85809350
S1130530440190934501A0934601B093470188EF8D
S113054091E090934901809348018B819C81AD8116
S1130550BE81BC01CD01B8DDE5DD91DE86DE1A8207
S113056019829BC089819A81880F991F9E012F5FF0
S11305703F4F820F931F0C96FC0180819181FC01F7
S1130580258136814781508589819A81880F991FF9
S1130590BE016F5F7F4F860F971F0C96FC01808111
S11305A09181FC0181819281A381B481281739074B
S11305B04A075B0709F045C089819A81880F991F12
S11305C09E012F5F3F4F820F931F0C96FC01008109
S11305D0118189819A81880F991F9E012F5F3F4F56
S11305E0820F931F0C96FC0180819181FC0121856F
S11305F0328589819A81880F991FAE014F5F5F4FC1
S1130600840F951F0C96FC0180819181FC018081EF
S1130610082E000C990BF9010995F8018083898152
S11306209A81880F991F9E012F5F3F4F820F931F5E
S11306300C96FC0180819181FC011582168217823F
S1130640108689819A81880F991F9E012F5F3F4FE1
S1130650820F931F0C96FC012081318189819A813C
S1130660880F991FAE014F5F5F4F840F951F0C9643
S1130670FC0180819181FC0185819681A781B085EF
S11306800196A11DB11DF90185839683A783B087C7
S113069089819A8101969A83898329813A818B85FC
S11306A09C852817390708F45DCF000080913A0132
S11106B08823E1F310923A0152CFF894FFCF61
S11306BE01000000435331323042206973204C65EF
S11306CE67656E642E2E2E7761697420666F7220B4
S11306DE69742044415259212020202020202020BA
S10D06EE20202020202020200100FD
S9030000FC
