S01900004353313230425F6C6162345F70617274312E7372656397
S113000045C000004BC0000049C0000047C00000CC
S113001045C0000043C0000041C000003FC00000D4
S11300203DC000003BC0000039C0000037C00000E4
S113003035C0000033C0000031C000002FC00000F4
S11300402DC000002BC0000029C0000027C0000004
S113005025C0000023C0000021C000001FC0000014
S11300601DC000001BC0000019C0000017C0000024
S113007015C0000013C0000011C000000FC0000034
S11300800DC000000BC0000009C0000011241FBEF9
S1130090CFEFD0E4DEBFCDBF30D0A0C0B1CFCF937F
S11300A0DF9300D01F92CDB7DEB789836A834B8379
S11300B08B81882371F08A81282F30E081E090E0E1
S11300C002C0880F991F2A95E2F7982F8981892BFE
S11300D00EC08A81282F30E081E090E002C0880FB2
S11300E0991F2A95E2F7982F9095898189230F907B
S11300F00F900F90DF91CF910895CF93DF9300D0AD
S1130100CDB7DEB781E290E0FC01108282E290E09C
S11301102FEFFC01208387E290E02FEFFC01208386
S113012088E290E0FC0110821A82198280E290E059
S1130130FC01808180958F708A8319828A81853041
S113014030F441E066E08981AADF898305C040E09C
S113015066E08981A4DF89838A81813019F08A81EC
S1130160823029F441E065E0898199DF89838A81BD
S1130170833019F08A81843011F480E389838A8181
S1130180853019F08A81863011F488E389838A8165
S1130190873031F08A81883019F08A81893011F4EE
S11301A08CE389838A818A3031F08A818B3019F01B
S11301B08A818C3011F48EE389838A818D3031F009
S11301C08A818E3019F08A818F3011F48FE389830C
S11301D088E290E02981FC012083A8CFF894FFCF26
S9030000FC
