:1000000045C0000053C0000051C000004FC00000B8
:100010004DC000004BC0000049C0000047C00000B8
:1000200045C0000043C0000041C000003FC00000C8
:100030003DC000003BC0000039C0000037C00000D8
:1000400035C0000033C0000031C000002FC00000E8
:100050002DC000002BC0000029C0000027C00000F8
:1000600025C0000023C0000021C000001FC0000008
:100070001DC000001BC0000019C0000017C0000018
:1000800015C0000013C0000011C0000011241FBEE5
:10009000CFEFD0E4DEBFCDBF21E0A0E0B1E001C0F2
:1000A0001D92A530B207E1F78FD121C3A9CF0F93DD
:1000B0001F93CF93DF9300D000D0CDB7DEB7698315
:1000C0007A838B839C838091000190910101A091A0
:1000D0000201B09103019C01AD0169817A818B819C
:1000E0009C818CD1882309F46CC020E030E0A90108
:1000F00069817A818B819C8181D1882351F485E447
:1001000090E025E430E0F90120812870FC01208393
:1001100009C085E490E025E430E0F9012081236006
:10012000FC01208328E539E344E75FE369817A81B4
:100130008B819C8163D1882334F487E490E02FEF96
:10014000FC0120832EC020E034E244EF56E46981B4
:100150007A818B819C8164D218162CF487E490E01C
:10016000FC0110821EC007E410E020E030E040E017
:1001700053E469817A818B819C8156D2DC01CB0169
:100180009C01AD0160E074E284EF9AE43BD1DC01B4
:10019000CB01BC01CD019ED1DC01CB018150F80126
:1001A000808386E490E0FC01108289819A81AB8192
:1001B000BC818093000190930101A0930201B09350
:1001C000030100000F900F900F900F90DF91CF91DF
:1001D0001F910F910895CF93DF93CDB7DEB784E4DD
:1001E00090E020E4FC01208385E490E02BE0FC011A
:1001F000208360E070E0CB015ADF0000DF91CF91F7
:100200000895CF93DF93CDB7DEB762970FB6F8941A
:10021000DEBF0FBECDBF84EA90EDA2E8B3E48C83CD
:100220009D83AE83BF838BE794EDA2E9B3E4888717
:100230009987AA87BB8784EA90EDA4EAB3E48C8708
:100240009D87AE87BF8780E290E0FC01808181704E
:10025000888B80E290E0FC0180818270898B80E253
:1002600090E0FC01808184708A8B8889882341F02A
:100270008989882329F48A89882311F481E0898374
:100280008889882341F48989882329F08A898823E9
:1002900011F481E08A838889882341F4898988233D
:1002A00029F48A89882311F081E08B8380910401ED
:1002B000882F90E08230910559F1833091052CF41C
:1002C000009749F0019759F03EC08330910549F1FC
:1002D000049781F138C081E08093040134C08981A2
:1002E000882311F082E001C081E0809304018A81BB
:1002F000882311F083E001C081E0809304018B81A9
:10030000882311F084E001C081E0809304011BC0C8
:100310008981882311F082E001C081E0809304018B
:1003200012C08A81882311F083E001C081E08093AC
:10033000040109C08B81882311F084E001C081E0B1
:1003400080930401000080910401882F90E08230A6
:100350009105A1F0833091052CF4009751F101979C
:1003600039F028C08330910591F00497C9F022C07C
:1003700060E070E0CB019BDE2EDF1CC08C819D8194
:10038000AE81BF81BC01CD0192DE25DF13C088851F
:100390009985AA85BB85BC01CD0189DE1CDF0AC019
:1003A0008C859D85AE85BF85BC01CD0180DE13DFC8
:1003B00001C00000000062960FB6F894DEBF0FBEC9
:1003C000CDBFDF91CF910895CF93DF93CDB7DEB747
:1003D00084E290E02FEFFC01208385E290E0FC01B5
:1003E000108281E290E0FC01108282E290E02FEF27
:1003F000FC0120831092040104DFFCCF9CD008F4A0
:1004000081E008950CD0D2C0CAD040F0C1D030F005
:1004100021F45F3F19F0B3C05111FCC0B6C0D7D072
:1004200098F39923C9F35523B1F3951B550BBB27BB
:10043000AA2762177307840738F09F5F5F4F220F68
:10044000331F441FAA1FA9F333D00E2E3AF0E0E861
:1004500030D091505040E695001CCAF729D0FE2FAD
:1004600027D0660F771F881FBB1F2617370748073F
:10047000AB07B0E809F0BB0B802DBF01FF279358F5
:100480005F4F2AF09E3F510568F079C0C3C05F3FBF
:10049000ECF3983EDCF3869577956795B795F795DD
:1004A0009F5FC9F7880F911D9695879597F90895D5
:1004B000E1E0660F771F881FBB1F62177307840771
:1004C000BA0720F0621B730B840BBA0BEE1F88F780
:1004D000E095089504D06894B1119CC008957FD030
:1004E00088F09F5790F0B92F9927B751A0F0D1F01D
:1004F000660F771F881F991F1AF0BA95C9F712C0A7
:10050000B13081F086D0B1E0089583C0672F782F95
:100510008827B85F39F0B93FCCF386957795679512
:10052000B395D9F73EF490958095709561957F4F7E
:100530008F4F9F4F0895990F0008550FAA0BE0E8C1
:10054000FEEF16161706E807F907C0F01216130695
:10055000E407F50798F0621B730B840B950B39F4D5
:100560000A2661F0232B242B252B21F408950A263B
:1005700009F4A140A6958FEF811D811D089597F97B
:100580009F6780E870E060E008959FEF80EC089539
:1005900000240A9416161706180609060895002462
:1005A0000A9412161306140605060895092E0394DC
:1005B000000C11F4882352F0BB0F40F4BF2B11F450
:1005C00060FF04C06F5F7F4F8F4F9F4F089557FDAF
:1005D0009058440F551F59F05F3F71F04795880FB1
:1005E00097FB991F61F09F3F79F087950895121648
:1005F00013061406551FF2CF4695F1DF08C01616F4
:1006000017061806991FF1CF8695710561050894A4
:100610000895E894BB2766277727CB0197F90895BB
:100620008ADF08F48FEF08950BD0C0CFB1DF28F038
:10063000B6DF18F0952309F0A2CFA7CF1124EACF97
:10064000C6DFA0F3959FD1F3950F50E0551F629F31
:10065000F001729FBB27F00DB11D639FAA27F00D1B
:10066000B11DAA1F649F6627B00DA11D661F829F42
:100670002227B00DA11D621F739FB00DA11D621F27
:10068000839FA00D611D221F749F3327A00D611D44
:10069000231F849F600D211D822F762F6A2F112426
:1006A0009F5750408AF0E1F088234AF0EE0FFF1F79
:1006B000BB1F661F771F881F91505040A9F79E3FB0
:1006C000510570F05CCFA6CF5F3FECF3983EDCF3B2
:1006D000869577956795B795F795E7959F5FC1F7ED
:1006E000FE2B880F911D9695879597F90895F8949C
:0206F000FFCF3A
:00000001FF
