:1000000045C0000060C000005EC000005CC0000091
:100010005AC0000058C0000056C0000054C0000084
:1000200052C0000050C000004EC000004CC0000094
:100030004AC000008BC0000046C0000044C0000061
:1000400042C0000040C000003EC000003CC00000B4
:100050003AC0000038C0000036C0000034C00000C4
:1000600032C0000030C000002EC000002CC00000D4
:100070002AC0000028C0000026C0000024C00000E4
:1000800022C0000020C000001EC0000011241FBEBE
:10009000CFEFD0E4DEBFCDBF11E0A0E0B1E0E2E6FB
:1000A000F5E000E00BBF02C007900D92AC30B10745
:1000B000D9F721E0ACE0B1E001C01D92AA31B2074E
:1000C000E1F7CFD14CC29CCFCF93DF93CDB7DEB752
:1000D00081E890E02BE0FC01208388E890E02DE7A8
:1000E00030E0FC01318320838FE690E022E0FC01C8
:1000F000208384E890E0FC0111821082809100014D
:1001000090910101A0910201B091030180930D0132
:1001100090930E01A0930F01B09310018FE590E032
:100120002FE530E0F90120812068FC0120830000E8
:10013000DF91CF910895CF93DF93CDB7DEB781E004
:1001400080930C010000DF91CF9108951F920F92D0
:1001500000905F000F92112400905B000F922F938C
:100160003F934F935F936F937F938F939F93AF933F
:10017000BF93EF93FF93CF93DF93CDB7DEB780911B
:100180000D0190910E01A0910F01B0911001019706
:10019000A109B10980930D0190930E01A0930F0165
:1001A000B093100180910D0190910E01A0910F016B
:1001B000B0911001892B8A2B8B2B89F4BCDF8091A5
:1001C000000190910101A0910201B091030180937F
:1001D0000D0190930E01A0930F01B0931001000048
:1001E000DF91CF91FF91EF91BF91AF919F918F914F
:1001F0007F916F915F914F913F912F910F9000925E
:100200005B000F9000925F000F901F901895CF93A6
:10021000DF9300D000D0CDB7DEB769837A838B83BC
:100220009C8389819A81AB81BC81809300019093EA
:100230000101A0930201B09303018091000190910C
:100240000101A0910201B091030180930D019093EF
:100250000E01A0930F01B093100100000F900F90BA
:100260000F900F90DF91CF910895CF93DF93CDB78B
:10027000DEB780911201909113018130910569F0F0
:100280008130910518F0029779F014C081E090E078
:1002900090931301809312010EC082E090E090933E
:1002A00013018093120107C081E090E09093130145
:1002B000809312010000809112019091130181300E
:1002C000910531F08130910550F0029721F008C07E
:1002D0001092110105C081E08093110101C000005E
:1002E00080911101809319010000DF91CF91089551
:1002F000CF93DF93CDB7DEB78091170190911801AE
:100300008130910581F08130910530F08230910586
:1003100089F00397B1F01CC081E090E09093180140
:100320008093170115C082E090E0909318018093AC
:1003300017010EC083E090E090931801809317019D
:1003400007C081E090E090931801809317010000AE
:1003500080911701909118018130910549F0813009
:10036000910590F08230910539F0039749F00DC066
:1003700082E08093110109C084E08093110105C0DF
:1003800088E08093110101C00000809111018093E9
:1003900016010000DF91CF910895CF93DF93CDB781
:1003A000DEB78091140190911501009719F0019723
:1003B00041F00EC081E090E090931501809314010C
:1003C00007C081E090E09093150180931401000034
:1003D0008091140190911501009709F43DC0019797
:1003E00009F03BC08091080190910901A0910A0198
:1003F000B0910B012CE231E040E050E0BC01CD01B6
:100400008CD0DC01CB01892B8A2B8B2B09F470DF7C
:100410008091040190910501A0910601B09107011E
:1004200028EE33E040E050E0BC01CD0176D0DC01A5
:10043000CB01892B8A2B8B2B09F417DF90911601A6
:1004400080911901892B8093110185E290E0209120
:100450001101FC01208301C000000000DF91CF9159
:100460000895CF93DF9300D000D0CDB7DEB784E2FC
:1004700090E02FEFFC01208385E290E0FC011082E8
:1004800084E690E0A0E0B0E089839A83AB83BC83EC
:1004900089819A81AB81BC81BC01CD01B8DE14DEBB
:1004A000109215011092140178DF000080910C0168
:1004B0008823E1F310920C01209104013091050191
:1004C000409106015091070189819A81AB81BC81DD
:1004D000820F931FA41FB51F809304019093050101
:1004E000A0930601B0930701209108013091090102
:1004F00040910A0150910B0189819A81AB81BC81A5
:10050000820F931FA41FB51F8093080190930901C8
:10051000A0930A01B0930B01C7CFA1E21A2EAA1B28
:10052000BB1BFD010DC0AA1FBB1FEE1FFF1FA217A3
:10053000B307E407F50720F0A21BB30BE40BF50BA0
:10054000661F771F881F991F1A9469F76095709529
:10055000809590959B01AC01BD01CF010895F89461
:02056000FFCFCB
:0C05620001000000E80300002C01000074
:00000001FF
