S01200006C6162375F70617274322E7372656364
S113000045C0000060C000005EC000005CC000008D
S11300105AC0000058C0000056C0000054C0000080
S113002052C0000050C000004EC000004CC0000090
S11300304AC000006DC0000046C0000044C000007B
S113004042C0000040C000003EC000003CC00000B0
S11300503AC0000038C0000036C0000034C00000C0
S113006032C0000030C000002EC000002CC00000D0
S11300702AC0000028C0000026C0000024C00000E0
S113008022C0000020C000001EC0000011241FBEBA
S1130090CFEFD0E4DEBFCDBF11E0A0E0B1E0E4E8F3
S11300A0F3E000E00BBF02C007900D92AC30B10743
S11300B0D9F721E0ACE0B1E001C01D92A731B2074D
S11300C0E1F701D15DC19CCF8BE0809381008DE786
S11300D090E0909389008093880082E080936F0081
S11300E0109285001092840080910801909109017A
S11300F0A0910A01B0910B0180930D0190930E0120
S1130100A0930F01B09310018FB780688FBF08953B
S11301101F920F920FB60F9211248F939F93AF9358
S1130120BF9380910D0190910E01A0910F01B091A8
S113013010010197A109B10980930D0190930E015B
S1130140A0930F01B0931001892B8A2B8B2B99F468
S113015081E0809311018091080190910901A0919F
S11301600A01B0910B0180930D0190930E01A093AD
S11301700F01B0931001BF91AF919F918F910F9098
S11301800FBE0F901F90189560930801709309019A
S113019080930A0190930B0160930D0170930E01FB
S11301A080930F0190931001089580911201813082
S11301B041F018F0823049F00CC081E080931201C4
S11301C00DC082E0809312010CC081E08093120183
S11301D005C0813019F0823021F006C010920C0164
S11301E003C081E080930C0180910C01809316017F
S11301F0089580911501813051F028F0823059F032
S1130200833069F010C081E08093150112C082E050
S11302108093150112C083E08093150112C081E020
S11302208093150106C0823041F0833051F0813053
S113023059F482E080930C0107C084E080930C01A0
S113024003C088E080930C0180910C018093140119
S1130250089580911301882319F0813039F004C086
S113026081E08093130102C0813061F56091000147
S11302707091010180910201909103012CE231E01F
S113028040E050E05BD0672B682B692B09F4B1DFA9
S1130290609104017091050180910601909107011C
S11302A028EE33E040E050E049D0672B682B692BFF
S11302B009F47BDF9091140180911601892B8093BE
S11302C00C0185B908958FEF84B915B864E670E020
S11302D080E090E059DFF8DE10921301BADF8091DC
S11302E011018823E1F3109211018091040190918E
S11302F00501A0910601B09107018C599F4FAF4FA2
S1130300BF4F8093040190930501A0930601B0931D
S113031007018091000190910101A0910201B09127
S113032003018C599F4FAF4FBF4F809300019093AF
S11303300101A0930201B0930301D0CFA1E21A2ED0
S1130340AA1BBB1BFD010DC0AA1FBB1FEE1FFF1F75
S1130350A217B307E407F50720F0A21BB30BE40BC5
S1130360F50B661F771F881F991F1A9469F760950C
S11303707095809590959B01AC01BD01CF010895C6
S1070380F894FFCF1B
S10F03842C010000E80300000100000050
S9030000FC
