:1000000045C0000060C000005EC000005CC0000091
:100010005AC0000058C0000056C0000054C0000084
:1000200052C0000050C000004EC000004CC0000094
:100030004AC000008BC0000046C0000044C0000061
:1000400042C0000040C000003EC000003CC00000B4
:100050003AC0000038C0000036C0000034C00000C4
:1000600032C0000030C000002EC000002CC00000D4
:100070002AC0000028C0000026C0000024C00000E4
:1000800022C0000020C000001EC0000011241FBEBE
:10009000CFEFD0E4DEBFCDBF11E0A0E0B1E0EEE8ED
:1000A000F3E000E00BBF02C007900D92A630B1074D
:1000B000D9F721E0A6E0B1E001C01D92AE30B20751
:1000C000E1F725D162C19CCFCF93DF93CDB7DEB7E7
:1000D00081E890E02BE0FC01208388E890E02DE7A8
:1000E00030E0FC01318320838FE690E022E0FC01C8
:1000F000208384E890E0FC0111821082809100014D
:1001000090910101A0910201B09103018093070138
:1001100090930801A0930901B0930A018FE590E044
:100120002FE530E0F90120812068FC0120830000E8
:10013000DF91CF910895CF93DF93CDB7DEB781E004
:10014000809306010000DF91CF9108951F920F92D6
:1001500000905F000F92112400905B000F922F938C
:100160003F934F935F936F937F938F939F93AF933F
:10017000BF93EF93FF93CF93DF93CDB7DEB780911B
:10018000070190910801A0910901B0910A0101971E
:10019000A109B1098093070190930801A093090177
:1001A000B0930A018091070190910801A091090183
:1001B000B0910A01892B8A2B8B2B89F4BCDF8091AB
:1001C000000190910101A0910201B091030180937F
:1001D000070190930801A0930901B0930A01000060
:1001E000DF91CF91FF91EF91BF91AF919F918F914F
:1001F0007F916F915F914F913F912F910F9000925E
:100200005B000F9000925F000F901F901895CF93A6
:10021000DF9300D000D0CDB7DEB769837A838B83BC
:100220009C8389819A81AB81BC81809300019093EA
:100230000101A0930201B09303018091000190910C
:100240000101A0910201B0910301809307019093F5
:100250000801A0930901B0930A0100000F900F90CC
:100260000F900F90DF91CF910895CF93DF93CDB78B
:10027000DEB780910C0190910D018130910569F0FC
:100280008130910518F0029779F015C081E090E077
:1002900090930D0180930C010EC082E090E090934A
:1002A0000D0180930C0107C081E090E090930D0157
:1002B00080930C01000080910C0190910D01813020
:1002C000910531F08130910588F0029741F00FC01F
:1002D0008CE380930B018BED8093040108C084E2D2
:1002E00080930B0183EC8093040101C0000082E243
:1002F00090E020910B01FC01208385E290E02091A9
:100300000401FC0120830000DF91CF910895CF9379
:10031000DF9300D000D0CDB7DEB781E290E02FEFC1
:10032000FC01208382E290E0FC01108284E290E0F4
:100330002FEFFC01208385E290E0FC01108287E230
:1003400090E0FC01108288E290E02FEFFC01208316
:1003500081E090E0A0E0B0E089839A83AB83BC8326
:1003600089819A81AB81BC81BC01CD0150DFACDEBB
:1003700010920D0110920C0178DF000080910601AF
:0E0380008823E1F310920601F7CFF894FFCF27
:06038E0001000000FF0069
:00000001FF
