S01800006765745F62616C6C5F776F726B696E672E7372656372
S113000045C0000060C000005EC000005CC000008D
S11300105AC0000058C0000056C0000054C0000080
S113002052C0000050C000004EC000004CC0000090
S11300304AC000007EC0000046C0000044C000006A
S113004042C0000040C000003EC000003CC00000B0
S11300503AC0000038C0000036C0000034C00000C0
S113006032C0000030C000002EC000002CC00000D0
S11300702AC0000028C0000026C0000024C00000E0
S113008022C0000020C000001EC0000011241FBEBA
S1130090CFEFD0E4DEBFCDBF11E0A0E0B1E0E6E8F1
S11300A0F2E000E00BBF02C007900D92A630B1074A
S11300B0D9F721E0A6E0B1E001C01D92AE30B2074D
S11300C0E1F7CAD0DEC09CCF6093010170930201B6
S11300D080930301909304016093070170930801D6
S11300E08093090190930A0108958BE08093810025
S11300F08DE790E0909389008093880082E080935C
S11301006F001092850010928400809101019091FB
S11301100201A0910301B09104018093070190931F
S11301200801A0930901B0930A018FB780688FBFBB
S113013008951F920F920FB60F9211248F939F93DD
S1130140AF93BF938091070190910801A091090199
S1130150B0910A010197A109B10980930701909315
S11301600801A0930901B0930A01892B8A2B8B2BD8
S113017099F481E080930B01809101019091020137
S1130180A0910301B09104018093070190930801A9
S1130190A0930901B0930A01BF91AF919F918F91F0
S11301A00F900FBE0F901F90189586B1817096B175
S11301B090910C019130F1F018F0923059F02CC06C
S11301C088E0809306018FEE8093000182E08093A3
S11301D00C0128C0909100019F37C1F591E09093E4
S11301E00C01811126C088E0809306018FEE809374
S11301F0000112C0909100019E3F59F592E0909346
S11302000C0181110FC088E0809306018FEE80936A
S1130210000110920C0113C080910C01813049F04F
S1130220823069F480910001880F8160809300011D
S113023006C08091000186958058809300018091CA
S113024000019091060192B985B90895882359F265
S1130250E9CF8111EECFD7CF8FEF81B912B884B92E
S113026015B817B888B968EC70E080E090E02CDF2E
S11302703CDF9BDF80910B018823E1F310920B019B
S1090280F8CFF894FFCF53
S1090286FF01000000006E
S9030000FC
